:1000000049C963C962C98DCC60C95FC95EC95DC990
:10001000E6CA5BC95AC959C958C957C956C9DCE6A5
:10002000550BE0FC05F4FD08FD0405FA05FD00068E
:10003000F6FBFE060804F5FBFEFE010803FC04F7D0
:10004000FF03FDFEFF0400FEFFFF01FFFC000002B6
:1000500000FF00FDFF0101FFFFFDFCFF02030300A5
:10006000FEFAFBFE020304FE00FD02FF01FF01FE9B
:1000700000FEFFFEFE3CC1BB0C10422E0FE4D7EE8B
:100080001303EA0B14EEFD17FCECFAF1FA0AF81070
:10009000110105F5F3010D07F8F5FCFE000403025C
:1000A000FE00FCF7F904060300F80303FE03FEFD5F
:1000B00002000200FEFAF8FEFF000301FCFBFEFE58
:1000C00005050200FEF9F8000705FEF6F6FE060932
:1000D0000605FBFAF007D1D54D40FBCAF510E90C37
:1000E0001FF0F9100CFAD1DD0F1D1B180DF3E4EB16
:1000F000F70B101506F7E7F50A0806FEFEFA0904E5
:10010000F4F6FF0202030605FDFAF0FC070C07F8FF
:10011000F1F306030C01FEFCFE0201FBFBF9F2FA0F
:10012000040D0A0CFC00EE05BFE3351B09230BD6BA
:1001300008FF10E3DCEF211C0A08ECFF070DF0F4C8
:10014000FE0D1010D9CCFB182E1800E8F112F8F3B0
:10015000EF010507100B06F6F4E5FC1417FDF6F7A2
:1001600007F4E5FB1E1500EBE805FE230DE1F40E98
:10017000EFE70F15FD000B0701E4EC19FBFF04008E
:1001800005FA10FFF6F302F904FBE400140617FF6A
:10019000D9EEFA121A0EFA0AF8F5FDE4F3111B1063
:1001A000F9E9E91119F903FEF3FEF70403ECF81578
:1001B000150D00F703F1F1EAFD08192002E7DAEB6B
:1001C000FE090A110C12FEF6F50302F3F907F4E931
:1001D0001606030E04F8E4F30609090AF3F006060E
:1001E000131208F9F5E5E40110130F0DFDE4D9F53C
:1001F0000F131510F8F4F1FCF8EFFC10120E07FFC6
:10020000EFE706FD110A01FCF9F5FA0AF4FF0C0DFF
:100210000704E8E50204040E0CFCECF3071307F4F2
:10022000F000FF040F080FFFF3F601FD02FAFAFDDC
:1002300002100905EDEDFD0AFAFC0501090D08F3B0
:10024000E9EBFF0C090801090CFCFAF0F4010A0FB4
:1002500003F9F2E8F7130902040601ECEE02110AB1
:10026000FEFBFC0B070A05F5FAFB04FBF7040C0781
:100270000005F7EAEEEFF6071216130BF7F3F6F7A1
:10028000FC01010405FD01F8040BFEFBFDFAF2F789
:10029000070A090900FF01FAF4020F0DFDF5F1F05C
:1002A000FF0F0E0D0BF7E6E1FA0F100801FCF70542
:1002B00006FBFBF7F4FD030C161607FBEEEFFAFC4A
:1002C000050809FDFEFBF6F5FA06090A0400FAF630
:1002D000FB0303FFF7F1F80710140CFEF1ECF80034
:1002E000030C0400FFF8FD0706FA050700FAF8FB07
:1002F000000803F8F2F2F4F800090E141507F8F6F6
:10030000F3FB0701000603FFF9F9FB05080405FCF0
:10031000F1EEFB060B0CFCF3FF05000102FC0207EB
:100320000602FDFBFCF8FC040704FBFDFD010601D1
:10033000FE00FBFD00FE03FCFC0302070602FBFFC0
:10034000FDF4EEEEFB0C111109F4F1FB04070807B4
:1003500001F7FE0202040100FDF8F6FAFC050D08A3
:10036000FFFDF6FB02FDFFFF010706FDFBFD02039B
:10037000020301FDF8FAFFFFFBFB02090D08FEF77F
:10038000F5F6F9F9FE080F0F07FEF7F6FD00FFFE80
:10039000010301FEFCFEFE020300FDFC020503FE5C
:1003A000FAFD0202010202FFFDFBFAFE00FFFAFB6A
:1003B00002060705FFF9F8FD010203020100000033
:1003C00000FFFDFE0000010000FFFEFDFEFF01003A
:1003D0000000FFFFFF00FFFFFF000000FFFFFFFF27
:1003E000FFFF000000FF01FC06E5C1D6C5CBC2CC73
:1003F000B8D9F6CC3CBA9A544F321D3C383E6255BF
:10040000773C1737FA27302F5A0A021EFCE12345A2
:100410001405DC1BF4B8F5C6B8DDCFA4ECD79DAB52
:10042000DCCE8A97969683858D8C939FADC4C8D772
:10043000DEE9EEEBDFD3EC05261C1A202E30374127
:10044000434E55565256535C646A6E726B6D737BA5
:1004500071707373685C6B433D36110E1106FDF5C8
:10046000EAE9D1CCD5C6B9C9C4B0AAAAB2AEA6B47D
:10047000BAA7A5A3A6A5A49DA2ACA0ACABAFB2ABF6
:10048000B4C0D0D0D3EAEEF2020F1516182D3B3CC3
:100490003B3E4042403F513E5B4B3A311233293A9A
:1004A0003D2D3E212D3830332B1F2E3215350019AE
:1004B00026182D06F1E512F3F9EDEEFCE4E7C1C4D0
:1004C000D0D7C9C4C6C0C1BEB3B2B2B1B2C5DCD602
:1004D000E5C6C0C8D8EAEBF7ECEAE2E9020A0EFF8B
:1004E00006231B26121412101D1B211A1F2B202459
:1004F00032212D2C373039403331282E2F25291B1E
:10050000253E152C3A22220D160EF7FEF9ECE0EEF0
:10051000F4DBC9D8D5BFC1CEC2AEB3B6BBC0C9D259
:10052000C6C8D9C8CDD7DCDDF0FFFAFEF7F6F1F486
:10053000010F0B0A242E282F221B12223112121710
:1005400018252116202725322D241326381E2B1777
:10055000120B031202F9151812131111EFF9F90910
:1005600001E6FBFBE0DEE5E8E3D2E3EBF7ECE6E0F7
:10057000EBE4CDE7E2CCCADDDBD7E0E6F901EBF650
:10058000EAE9F2F208F7F506F80013020909040D8A
:1005900010140907171019160615110F13151E222E
:1005A0002E31192627283024221F202219131C251A
:1005B0001C130A0D10FFFFF4E3E5DEDBE4DCD5CC11
:1005C000CAD5D9E3EBEDEDE5E8E7E8F0E1DEE7EFEA
:1005D000E6E6EBE4E4ECEEF7FBEAFC02FAFC0702E9
:1005E000030F1426241E1F27241A1A281E1B29193C
:1005F0001001101B171B0E0B0E03FF06051D160224
:10060000F40E02FB0EFF200B0B01FCF6DEF7FEFAE8
:10061000E8EFEDE0E0D0CFD8DDF0EDE2ECF1EDF782
:10062000EDDDECF9F3FFFCFA12040B0500160D0DDD
:1006300011FE0204F90704FFF904100A0B090E0564
:10064000030B0809FFFC090203FDFB1909060C0155
:1006500002FCFCFF0F05030500FFFEFBFB0AFB018C
:10066000FCFBFBF2FAECE7EAF7F1E6F103FBF4033B
:1006700002000F0F121907100C010906070205FBF3
:10068000FF050605F3F7FA05FDF6FBFFFCF4F8FE9F
:10069000FEF7F4F6F6FDF8FE07FB0C01F2F8F9F6AA
:1006A000FBFC0004F2E6E8E7ECF5F4F8080BFE05C5
:1006B0000412040B19060E050919100D0808110D76
:1006C00011140E0E0A0A11FD010600FFFCF4ECFAEB
:1006D00000FEF4F8F7F1FF0408FFFCF4F0FDFDF86C
:1006E000F6F6F0E7E601FBFAF6F50DFFFE04FAF484
:1006F000FA0E0C0809F8F9FF05FA000603FBFC05E1
:10070000FE0AFBFA04F8020205080C0BF6F5F301E9
:10071000FFFAFFFBFFF4F4F0FB01F8FEF7F604002C
:100720000001000503050509050DFD040BFC0A0485
:10073000050D0B11160C0FFEFE1103031008070B1D
:10074000060506000102FBFDF50101F8E6F2EDE702
:1007500002EFF3EDE8F9F6EFF5EFF4FCF2FCF7F554
:10076000ECED0007000101F5F7FF06FBF80000FFC4
:10077000000D0C01180E04140A13161D1A040E1293
:100780000B0A1316030BFD06030205010D030BFCF8
:10079000FAF207FEFC00EEF0F1FBF5F4ECF6F1EDF9
:1007A000E9EAEAE5E9ECF7F7F804FCF2F8F4F8F620
:1007B000FFF7FA050808F5F60D02050B030E080F02
:1007C000130C0F120C1A10141C130D1018100D0816
:1007D0000C030A0D0800FE01F0F4FFF6FEF6F6F831
:1007E000E801FAECF1F5F3F3EBEBEEF1F1E2EBF605
:1007F000EBEAF6F2F9F3F8FAFB02FBFA0104FF0B5D
:1008000006090408070B0F030A020202060E0A0A71
:100810000E0E0A0B0F0A0E100F0B0D0C08FDFA0638
:1008200008020A06FC04FE01FAF9F900FCFA02F9D2
:10083000FFFEF6F5F5F901FD02FDFF04000702FFDA
:10084000FEF2F5F5FAF6EEF9F1ECE7E9ECEEEAEE98
:10085000F1F8F8F0FDF3F6FDF9040A02FF070807C6
:1008600009FFFC0B060B08000E1009020807060B17
:100870000800090C111713180F17110C120F13177A
:100880000A0C080103FE08F7FA05F8FAF7FEFAF871
:10089000F7EEEFEDF8F2F7FEF6FBE8E9F0E9F8F431
:1008A000F2ECE7F2EDEDF8F2FDF8F108FCFFFDF8EF
:1008B000FA01020200FE06FF060A0B0608070B0CEF
:1008C000090A06050A0903080103050402060F0BBD
:1008D0000C0C0A0B0D100E080B0B08060E02020181
:1008E000FA00F7FBF9F7F8F3F4F8EFF3F0F0F1ECB6
:1008F000F5F4EFF0F4F5EFF4FFF6F3FCFD0005007E
:1009000002FF0501FF03010602060A080B06FC07A9
:10091000070801030806080301040609070508FE85
:100920000906070A0301FEFD00000303FF00FDFFA7
:10093000F9F9F2F8F6F2F4F3F6F5F3F0F3F9F7F269
:10094000FB02090500FD0205000107090309070371
:1009500002020400060B00060703090402FCFF0163
:1009600000FFFFFF0104040402FEFDFF01FFF9FF89
:10097000FCFAF9FBFAFCF9F7FBFAFDF9FFFDFEFDC5
:10098000FB0102FE020100030201FE02FF01FDFE67
:10099000FEFE060303010001010301010102030140
:1009A000FEFFFE010001050101FE0301FDFD020144
:1009B00001FD01FFFA00FAFBFCFCFDFBF7FAF8FB76
:1009C00001FCFFFEFE010100040602020404010511
:1009D000020201030700FD00030001000101FF0204
:1009E00003FCFAF9F8FCFCFEFDFEFF00000306FF25
:1009F0000102FF00FEFDFFFE0101FCFFFFFDFCFE0A
:100A00000102FF0200FB00FBFEFEFC02010103FFEE
:100A100002020001FE020102FEFD00FEFFFF0100D6
:100A2000FF020105000003FFFFFEFEFFFDFFFFFCCC
:100A3000FCFBFCFE00FFFDFEFEFFFFFD0000FEFFD5
:100A4000FEFF0000FF0103FF0204010203FFFEFEA0
:100A50000101FF02FF0001FE01010204FEFF02FF8F
:100A60000100000100FF000202010101000101FF7D
:100A7000FFFEFDFDFEFFFDFEFE00FEFEFFFFFDFE94
:100A8000FCFFFEFDFCFAFEFDFCFDFFFF0100000087
:100A900000FFFD000001FFFE00010103020202024F
:100AA0000405030302020100FF00010101FFFFFF33
:100AB00000FFFFFEFEFEFDFFFFFEFDFEFF00FFFF4D
:100AC0000000010000FF0000FFFFFF00FEFFFEFE30
:100AD000FFFDFEFF00FFFFFEFEFFFD0000FF000028
:100AE000FF0000FF000102000000FF00FEFEFEFF0D
:100AF00000FF010000000001020000FF0001FFFFF5
:100B0000FEFFFFFFFEFEFDFEFEFDFDFCFEFEFEFD08
:100B1000FDFDFFFF000000000000000201010101D7
:100B200001020202010203020202010000000100B0
:100B300000FFFF0000FEFF00FEFF00FFFFFFFEFEC4
:100B4000FEFEFEFEFEFEFFFFFFFFFFFEFFFFFFFEBD
:100B5000FEFEFEFFFFFEFEFFFFFFFF000000FF00A6
:100B6000000000000101010100010101010101017A
:100B7000010100000000000000000000FFFFFFFF77
:100B8000FFFFFFFFFFFFFFFFFFFFFFFFFFFFFFFF75
:100B9000FFFFFFFFFFFFFFFFFFFFFFFFFFFFFF0064
:100BA00000FFFF0000000000000000000000000047
:100BB000FE0D2828272A2C2E2F313B48494D525311
:100BC000535558565654565457565551474C4C3C0D
:100BD0003F5A53484F5140262F50553917313DFF4A
:100BE000FA000402F0E8E9F2DFD4E3DFCBCAD1CDAA
:100BF000C2CACAC1C3BBBABAB3B3B3AAABB2A9A57E
:100C0000A7A59D9AA19F9B979A9B918C94908C8E5F
:100C1000888A848684808588838181808484848492
:100C200085858787878887898D8E8D8E8F9192980D
:100C3000A6ACA7AAB7B9BBBFCEDDDADDE8EAEEFC09
:100C400001090F11151B2025292C3234373C3E4158
:100C50004346484B505254575B5D5D5F6164666824
:100C6000696C6E6F71747373757777777A7A7B7945
:100C70007A7C7B7A797B7B7A7979797776757677E6
:100C8000747474737171706E6E6D6B676564605EA1
:100C900059544E4A4A413B3B372F312C25241F1FC4
:100CA0001D1B17110A0B0802FFFAFBF4EBEBE7E23E
:100CB000DFDDD8D5D4D1CDCCCBC8C7C5C4C3C0C265
:100CC000C1BFBFBEBDBCBBBBBBB9B7B8B8B5B5B47F
:100CD000B4B3B2B3B2B1B0B1B1B0AFAFB1AFAFAF07
:100CE000AFB0B0AFAFB0AFAFB0AFB0B0AFAFAFAE0F
:100CF000AFAFB0AFAFAFAFB2B0B0B1B1B3B3B2B1ED
:100D0000B2B2B1B3B6B6B7B7B9BDBCBBB9BBBDBB68
:100D1000BDBEBCBDBEC0C2C1C2C6C8CCCCCCD2D286
:100D2000D0D3D2D1D3D4D9D8DCDDDBE2E5E7E9EF0B
:100D3000F1F1F3F4F7FDFEFE030606080B0C1014A8
:100D40001519191A1C202021222528282B2A2D2E7E
:100D50002E30313433333636373638393939383C3A
:100D60003D4040414242424244444245464545435B
:100D7000444645454347464544444543434443422E
:100D8000424242434240403D3E3D3B383836343497
:100D900032302E2C2B29252423201D1D1D1B191715
:100DA000151211100F0D0C0B0A090605040303019F
:100DB000FDFDFBF9F8F7F6F4F3F2F1F1F0F0EFEDE9
:100DC000ECEDEDECEBE9EBEBE9E9E8E8E9E5E5E58D
:100DD000E4E4E2E2E2E1E0E0DFDFE0DEDEDEDCDB15
:100DE000DDDEDFDFDEDFDEDEDDDEDFDFE0E0E1E017
:100DF000E2E2E2E3E1E1E1E0DFDFDFE0DFDFDFE2EB
:100E0000E2E1E1E0E2E1E0E1E2E0E1E1E1E2E2E4CD
:100E1000E3E5E7E7E7E7E8E9EAEAEBEBEDF0F0F036
:100E2000F1F1F3F4F5F7F8F7F9F9F8FAFAFBFBFC4E
:100E3000FEFFFE0001020204050507080A0B0C0E66
:100E40000F0E0F0F1010101313121213141415138A
:100E50001314141313141313131414131414141459
:100E60001413121111111111111011110F10111071
:100E70000F0F0F0F0F0E0D0D0D0D0C0B0C0B0B0AA2
:100E80000A0B0A09090807080707060605050504ED
:100E9000040303030202010001FFFF0000FF00FF43
:100EA000FEFFFEFEFEFDFDFEFDFDFDFDFDFDFDFD6B
:100EB000FEFEFEFEFEFFFFFEFEFEFFFFFEFEFFFF4C
:100EC000FF00FF000000000101010100000100001F
:100ED00000010101000000FFFFFFFFFFFFFFFEFE1A
:100EE000FEFEFDFEFDFDFDFCFDFCFBFCFBFBFBFA3D
:100EF000FBFBFAFAFAF9F8F7F8F8F9F7F7F8F8F669
:100F0000F7F7F7F6F6F7F7F7F7F8F8F8F8F8F8F86C
:100F1000F9F9F9F9FAF9FAFAFBFAFBFBFBFCFCFC2C
:100F2000FBFBFCFCFCFCFDFDFDFDFDFDFDFEFEFEF6
:100F3000FFFFFFFF0000FF000000010000010102B1
:100F40000202020202020303030303030303030476
:100F5000040403030303030404040303030303035C
:100F6000040302020101000001010100000000FF72
:100F7000FFFFFFFFFF0004FFF112FCFA0FF706F07E
:100F80000300FF00FD1000FCEE0DF9FB04030A0254
:100F90000FF92107F612E502FD10FBE1FBEF08EA6D
:100FA000FAF8F509F701F7F6FD061B06FFF3E90667
:100FB000F410051809080EF705EC0AE7FBF404F530
:100FC000EF08F70BEE17F70E00090B0410EA0DF906
:100FD0000CF604E6EE03F90EEF03FF12FB0B0E0016
:100FE00007F108F9FBFBFEF9EEFDFC04FCFE0B0C1F
:100FF000040103F8F3FE0207000B0601FDFF0901DF
:10100000FFFAFFFD0BF4FEF6FC020404FD0CFA04EB
:10101000E90408FC07FAFEFFFCF5F6F606FBFB0305
:10102000FF0309FF0200000CFD04FDFEFA0C0002A4
:101030000FFF06F706FCFFFDF0FFFCFCFEF9F908C8
:1010400004010802FB00F801050600F501F40008A0
:10105000FAFDFDF9FF03FB05FC0410F90804010784
:10106000FAF4F9070101FD00010201F7FB07FDFA9F
:10107000FDF904FE0807000B01FBFDF5F705FDFD7A
:10108000FCFD05020AFAFD08F9F8FE03FF0502015E
:1010900003020801FDFEF9FD01FDFF0201FAFC005B
:1010A000FB010101010202F90106FEFD0702FFF743
:1010B000FA03FE01FFFFF90109FFFD0306FB04FD32
:1010C000FF03F3FD0205FB02F80301FC02FA08F737
:1010D0000105FBF9FF04FFFD0400FDFFFF04FFFF16
:1010E00003040101F90406FEFCFC0002FEFD03F905
:1010F00002FEFFFE0200FBFAF903FE05FA0402FEFF
:1011000007FFFE0100FB02FD03000204FB010203D6
:10111000FD03FDFE03FCFFFE01FCFAFF04FDFDFEE6
:10112000FB01FD06FE00020100FE01F705FB0404C1
:10113000FE06FF00FC0402FFFF01FDFEFFF901FFB8
:10114000FA01FDFD02FB03FEFD03FFFE01010000AD
:101150000002FE010500FE03FE00FE00FFF900FF95
:10116000FFFB02000200FE01FD00FEFCFF0301FF89
:10117000FDFEFFFF01FE010302020000FE03FBFD76
:1011800002FFFDFD0501FFFF000100FDFE0001FF64
:101190000002FEFFFE03FDFE01FEFFFF0301FEFE57
:1011A000FFFFFF00FF000100000403FEFFFE000040
:1011B00000FEFB00000001FDFEFFFEFD00FEFE0143
:1011C000FE000001FF000102FEFF0000020101FF1E
:1011D00002FF00FF01FE00FFFD01FE00FEFF000018
:1011E000FFFF0000FFFF0000000000000000010101
:1011F000010202030405050607090A0B0C0E0F1174
:1012000012141517191B1D1F212325282A2C2F31D5
:101210003436393B3E414346494C4F5255585A5D4E
:101220006164676A6D707376797C808386898C8F40
:101230009295989B9EA2A5A7AAADB0B3B6B9BCBE25
:10124000C1C4C6C9CBCED0D3D5D7DADCDEE0E2E468
:10125000E6E8EAEBEDEEF0F1F3F4F5F6F8F9FAFA78
:10126000FBFCFDFDFEFEFEFFFFFF0102000004008F
:1012700000000000000000003800000000003700FF
:10128000020202020202020202020102040810200B
:101290002004100811241FBECFE5D2E0DEBFCDBF71
:1012A00010E0A0E6B0E0EAEFFBE102C005900D928D
:1012B000AE36B107D9F721E0AEE6B0E001C01D922D
:1012C000AD39B207E1F7F1D396C49AC690E0FC01BC
:1012D000E657FD4E249180589D4EFC018491882351
:1012E00099F090E0880F991FFC01E658FD4EA591FA
:1012F000B491FC01EC58FD4E859194918FB7F89410
:10130000EC91E22BEC938FBF089580E287B9379A76
:10131000329A319A309A339A8FB780688FBF089586
:101320008091600090916100892B09F454C08091F4
:101330009A0090919B00069690939B0080939A0050
:1013400020919A0030919B00809160009091610003
:1013500028173907B0F010929B0010929A008091E4
:101360009900882371F0809199002091990090E074
:1013700046E0959587954A95E1F70196281B2093BD
:10138000990080919700909198000696909398000C
:101390008093970020919700309198008091600091
:1013A0009091610028173907B0F0109298001092C0
:1013B000970080919600882371F08091960020918B
:1013C000960090E036E0959587953A95E1F701967D
:1013D000281B209396000895CF9320917D0030E044
:1013E00035952795359527958091930090E0F4E009
:1013F000880F991FFA95E1F72817390714F0109212
:101400007D0080917C00E0917D00F0E0EB58F04F92
:10141000E49140917A0050917B00E0582E2F30E00B
:10142000FA01EF2FFF27E695A90175E0559547953D
:101430007A95E1F7E456FF4FE40FF51F40919400D1
:101440009081941740F0281B310937FF03C0319574
:1014500021953109822F6091960070E090E0BAD317
:1014600090937C0080918900813021F108F45BC069
:10147000823009F45AC020917E0030917F0085E0CF
:10148000369527958A95E1F780918900833009F098
:1014900066C0273C83E0380730F010927F0010923E
:1014A0007E0030E020E0D901A155B44FFD01C49188
:1014B000C05831C020917E0030917F00369527952D
:1014C00036952795809192008456990B55E0880FA8
:1014D000991F5A95E1F72817390720F010927F00DD
:1014E00010927E00E0917E00F0917F00F695E795E6
:1014F000F695E795EB58F04F6491E0917800F09104
:101500007900EF2FFF27E456FF4F8081605870E08D
:1015100090E060D3C92F6091990070E08C2F90E02B
:1015200059D390937600CF9108952091780030910F
:101530007900232F33278091920090E00596281799
:10154000390748F780917E0090917F009093770053
:10155000E0917700F0E0E456FF4FC081DCCF80914E
:101560008900843071F42B3CE7E03E0730F01092A4
:101570007F0010927E0030E020E0D901AB51BC4FDB
:1015800095CF80918900853059F4283CF3E03F07DE
:1015900010F110927F0010927E0030E020E01BC01E
:1015A00080918900863071F4263782E0380730F068
:1015B00010927F0010927E0030E020E0D901AB58FD
:1015C000B04F74CF80918900873009F06FCF283CED
:1015D000E3E03E07F0F6D901A25EBF4F67CF1F924E
:1015E0000F920FB60F9211242F933F934F935F9357
:1015F0006F937F938F939F93AF93BF93EF93FF93DB
:1016000080919C018F5F80939C0120916200822FCA
:1016100090E0FC01EF56FF4F308140919500411161
:1016200041C183579F4FDC013C9385B18083209358
:101630008C00211121C090918000809191008C3804
:1016400008F08EC010928000809180009817A1F061
:10165000891B990B97FF03C0919581959109813062
:1016600009F086C08FE7809399008FEF80939600F2
:1016700010927F0010927E0080918B008F5F8630E9
:1016800008F07BC080938B00E0918B00F0E0E9597B
:10169000FF4F80818093620097B1907797B997B19F
:1016A000892B87B980918C00833009F077C08091B5
:1016B0009000409194008417F1F150E09A01220FBC
:1016C000331F220F331F90918900913009F058C0C9
:1016D000220F331F220F331F2F51334030938400CA
:1016E0002093830020918300309184003093820006
:1016F000209381009091960090E0841B950B97FFBA
:1017000003C091958195910920919600AC01F3E079
:10171000440F551FFA95E1F7240F352F311D2F3F48
:10172000310509F0CCF590919600880F880F880F4D
:10173000890F8093960081E080939500369AFF91FF
:10174000EF91BF91AF919F918F917F916F915F9139
:101750004F913F912F910F900FBE0F901F901895B2
:10176000833A20F082E0809380006ECF81E0FBCF4F
:101770008FEF8093990086E979CF10928B0084CF08
:1017800090918900943018F02F5F3F4FA7CF220F20
:10179000331F220F331FF8CF8FEFCBCF823009F0EA
:1017A0005BC09091930080918F00891721F2292FBF
:1017B00030E0220F331F220F331FA901405C5F4F1F
:1017C000440F452F441F550B51954093890040917C
:1017D00089004730C8F143B74E7F43BF43B74260EB
:1017E00043BFA90164E0440F551F6A95E1F74F5FBD
:1017F0005F4F509388004093870040E052E0421BC7
:10180000530B509386004093850020919900891BCB
:10181000990B97FF03C091958195910920919900AB
:10182000AC01440F551F440F551F240F352F311D98
:101830002F3F310509F074F490919900880F880FBB
:10184000890F8093990077CF43B7416043BF43B777
:101850004D7FC6CF8FEFF5CF813009F06CCF8091EF
:10186000920090918E00981709F465CF853670F03C
:10187000893748F08857990B9093610080936000F6
:1018800010928A0058CF81E090E0F6CF24E630E055
:10189000281B310930936100209360008FEF809303
:1018A0008A0049CF383C90F427B38D599F4FFC01F3
:1018B000308181E090E0A0E0B0E004C0880F991F83
:1018C000AA1FBB1F3A95D2F7822B87BB27B3E091A3
:1018D0006200F0E0ED59FF4F308181E090E0A0E040
:1018E000B0E0AC01BD0104C0440F551F661F771F57
:1018F0003A95D2F74095422347BB28B3E091620066
:10190000F0E0ED59FF4F308104C0880F991FAA1FE6
:10191000BB1F3A95D2F78095822388BB1092950021
:101920000DCF1F920F920FB60F9211242F933F935A
:101930004F935F936F937F938F939F93EF93FF9357
:101940008091760089BD80917C0088BD80918A005D
:10195000882309F485C080919900209183003091FB
:10196000840040917E0050917F00240F351F820F2C
:10197000932F911D90937F0080937E00209199007A
:10198000409183005091840080917D00240F352F79
:10199000311D820F80937D008091990020918700F6
:1019A000309188004091780050917900240F351FC4
:1019B000820F932F911D90937900809378008091EE
:1019C0007E0090917F0083709927892B71F420917C
:1019D00085003091860080917A0090917B00820F83
:1019E000931F90937B0080937A00809189008111EE
:1019F00059C0E0917800F091790020917E003091FB
:101A00007F00EF2FFF27E456FF4F80816091920007
:101A100070E090E0DFD0820F931F26E096958795C7
:101A20002A95E1F780937700E09177006091990023
:101A3000F0E0E456FF4F808170E090E0CBD09093CF
:101A40007600FF91EF919F918F917F916F915F91C0
:101A50004F913F912F910F900FBE0F901F901895AF
:101A6000209183003091840080917E0090917F00CE
:101A7000820F931F90937F0080937E0020918300BC
:101A80003091840080917D00820F80937D002091B1
:101A90008700309188008091780090917900820FC2
:101AA000931F89CF80918900CCCF2FDC8CB58064C7
:101AB0008CBDEAEEF1E1ACE9B0E084918D93319612
:101AC00081E0AC31B807C9F78FEF80931C01EBE1DF
:101AD000F1E0ADE1B1E080818D93319790E0EC3998
:101AE000F907C9F7EFE6F2E18491EFE8F2E19491AA
:101AF000E5E8F2E1E491EE23B9F0882341F0823089
:101B000009F462C008F053C0813009F459C0F0E014
:101B1000EE0FFF1FEC58FD4EA591B4918FB7F894CE
:101B2000EC91E92BEC938FBF80E0D0DB81E0CEDB42
:101B300087B5826087BD87EC90E00197F1F700C020
:101B4000000007B400FEFDCF87B5846087BD87B570
:101B5000806887BDF89483EA8ABD81E083BF10BEA8
:101B60001FBC82E08CBD8FEF8EBD8DBD80E489BF30
:101B700084E880BF7894C9DB8091620097B1907748
:101B800097B997B1892B87B9369A87EC90E001977E
:101B9000F1F700C0000080919C018C30C0F0C0E0E3
:101BA000D0E01ADCBDDB2097E1F32AD2FACF8330F4
:101BB00019F0843009F0ABCF8CB58F7D8CBDA7CFE9
:101BC0008AB58F778ABDA3CF8AB58F7DFBCF04DC22
:101BD000A7DBE1CF0024552704C0080E591F880F4A
:101BE000991F009729F076956795B8F37105B9F7B5
:0A1BF000802D952F0895F894FFCF83
:0E1BFA00320001050204030001000200030096
:00000001FF
