:1000000095C1AFC1AEC1D6C3ACC1ABC1AAC1A9C174
:10001000A7C2A7C1A6C1A5C1A4C1A3C1A2C1000412
:10002000FFF112FCFA0FF706F00300FF00FD1000CD
:10003000FCEE0DF9FB04030A020FF92107F612E5A5
:1000400002FD10FBE1FBEF08EAFAF8F509F701F70A
:10005000F6FD061B06FFF3E906F410051809080E65
:10006000F705EC0AE7FBF404F5EF08F70BEE17F7DA
:100070000E00090B0410EA0DF90CF604E6EE03F984
:100080000EEF03FF12FB0B0E0007F108F9FBFBFE5E
:10009000F9EEFDFC04FCFE0B0C040103F8F3FE0278
:1000A00007000B0601FDFF0901FFFAFFFD0BF4FE3F
:1000B000F6FC020404FD0CFA04E90408FC07FAFE4D
:1000C000FFFCF5F6F606FBFB03FF0309FF02000049
:1000D0000CFD04FDFEFA0C00020FFF06F706FCFF04
:1000E000FDF0FFFCFCFEF9F90804010802FB00F832
:1000F00001050600F501F40008FAFDFDF9FF03FB18
:1001000005FC0410F908040107FAF4F9070101FDE0
:1001100000010201F7FB07FDFAFDF904FE080700E4
:100120000B01FBFDF5F705FDFDFCFD05020AFAFDDF
:1001300008F9F8FE03FF05020103020801FDFEF9BC
:10014000FD01FDFF0201FAFC00FB010101010202B9
:10015000F90106FEFD0702FFF7FA03FE01FFFFF9B2
:100160000109FFFD0306FB04FDFF03F3FD0205FB90
:1001700002F80301FC02FA08F70105FBF9FF04FF8E
:10018000FD0400FDFFFF04FFFF03040101F9040665
:10019000FEFCFC0002FEFD03F902FEFFFE0200FB76
:1001A000FAF903FE05FA0402FE07FFFE0100FB0256
:1001B000FD03000204FB010203FD03FDFE03FCFF3F
:1001C000FE01FCFAFF04FDFDFEFB01FD06FE000240
:1001D0000100FE01F705FB0404FE06FF00FC04021B
:1001E000FFFF01FDFEFFF901FFFA01FDFD02FB0328
:1001F000FEFD03FFFE010100000002FE010500FEFE
:1002000003FE00FE00FFF900FFFFFB02000200FEFC
:1002100001FD00FEFCFF0301FFFDFEFFFF01FE01EB
:100220000302020000FE03FBFD02FFFDFD0501FFCE
:10023000FF000100FDFE0001FF0002FEFFFE03FDC6
:10024000FE01FEFFFF0301FEFEFFFFFF00FF0001B6
:1002500000000403FEFFFE000000FEFB00000001A2
:10026000FDFEFFFEFD00FEFE01FE000001FF00019D
:1002700002FEFF0000020101FF02FF00FF01FE007D
:10028000FFFD01FE00FEFF0000FFFF0000FFFF007A
:100290000000000000000001010102020304050546
:1002A0000607090A0B0C0E0F1112141517191B1D46
:1002B0001F212325282A2C2F313436393B3E414338
:1002C00046494C4F5255585A5D6164676A6D707368
:1002D00076797C808386898C8F9295989B9EA2A547
:1002E000A7AAADB0B3B6B9BCBEC1C4C6C9CBCED047
:1002F000D3D5D7DADCDEE0E2E4E6E8EAEBEDEEF0D7
:10030000F1F3F4F5F6F8F9FAFAFBFCFDFDFEFEFE5A
:10031000FFFFFF000000003800000000003700026F
:1003200002020202020102040810200011241FBE72
:10033000CFE5D2E0DEBFCDBF10E0A0E6B0E0E4EB59
:10034000F9E002C005900D92A438B107D9F721E079
:10035000A4E8B0E001C01D92A53AB207E1F7B9D216
:1003600027C34ECE17B8379A329A319A309A339AB9
:100370008FB780688FBF0895FF920F931F93CF931D
:10038000DF9380919C00811152C000919100609197
:10039000A0008091900090E0EFEFF0E070E09F010E
:1003A000281B390BC901F3D2492F90939100292FB3
:1003B00030E0A0918B00B0918C001091A000809152
:1003C0008E0090E08C559F4FEC01888190E0B90140
:1003D000DED2F92E8B2F99278C559F4FEC01888107
:1003E000BF01611B710990E0D2D29F0D90938A00EA
:1003F000041730F480E090E490938E0080938D0099
:10040000201B310937FF03C0319521953109243074
:1004100040F080E0922F8A0F9B1F90938C00809376
:100420008B00DF91CF911F910F91FF900895813044
:1004300009F03DC08091A00020918F003091900084
:1004400036952795369527958456990B75E0880F34
:10045000991F7A95E1F72817390720F0109290003C
:1004600010928F0020918F0030919000F901F69545
:10047000E795F695E795E25EFF4F649180918900DC
:1004800090E08C559F4FFC01808170E090E07FD21E
:1004900090938700E0918600F0E0232F3327EC55FE
:1004A000FF4FE20FF31F808180938A00BACF823022
:1004B00009F0B7CF8091890090E02091A000281723
:1004C000190648F42091900030E02C553F4FE90187
:1004D00028812093870020918E0030E02C553F4FDB
:1004E000F90140818C559F4FEC018881480F5527B9
:1004F000551F20918C0030E02C553F4FF901808131
:10050000480F511D2091850030E02C553F4FE901E7
:100510008881840F952F911D959587959595879541
:10052000C3CF90E0FC01EB5DFC4F2491815E9C4FBA
:10053000FC018491882399F090E0880F991FFC01B9
:10054000E75EFC4FA591B491FC01ED5EFC4F8591F7
:1005500094918FB7F894EC91E22BEC938FBF0895B0
:100560001F920F920FB60F9211242F933F934F9328
:100570005F936F937F938F939F93AF93BF93EF930B
:10058000FF938091A4018F5F8093A4018091A300C9
:100590008111C5C020916000E22FF0E0E156FF4FCD
:1005A000808194B185B18927982789279695879569
:1005B00096958795808320939E00211108C0809195
:1005C0009F00863908F047C081E080939C008091AD
:1005D0009D008F5F863008F047C080939D00E091BA
:1005E0009D00F0E0E358FF4F80818093600097B159
:1005F000907F97B997B1892B87B980919E008230FF
:10060000C1F58091A10090E0880F991F880F991F74
:1006100020919C00880F991F880F991F213039F570
:100620008F519340909393008093920081E0809348
:10063000A300369AFF91EF91BF91AF919F918F9157
:100640007F916F915F914F913F912F910F900FBECE
:100650000F901F90189580919F00833A10F082E0D0
:10066000B4CF10929C00B3CF10929D00B8CF0196EA
:10067000D9CF8330D9F62091A20030E0220F331F6A
:10068000220F331F40919C00220F331F220F331F74
:10069000413049F42F5A34403695279530939B00CA
:1006A00020939A00C3CFC9010196423059F5E091D9
:1006B000A000F0E045E0F595E7954A95E1F79093C5
:1006C0009B0080939A00EF59FF4F608170E0019684
:1006D0005ED190939900809398008085B901625013
:1006E000710990E054D1909397008093960080898F
:1006F000B901685F7F4F90E04AD190939500809355
:10070000940094CF90939B0080939A0090939900CB
:1007100080939800909397008093960087CF809164
:100720009C00813009F443C08091600090E0FC019E
:10073000E156FF4F2081283C90F427B387589F4F04
:10074000FC01308181E090E0A0E0B0E004C0880FBF
:10075000991FAA1FBB1F3A95D2F7822B87BB27B3DD
:10076000E0916000F0E0E758FF4F308181E090E0D9
:10077000A0E0B0E0AC01BD0104C0440F551F661FEE
:10078000771F3A95D2F74095422347BB28B3E091B3
:100790006000F0E0E758FF4F308104C0880F991FD8
:1007A000AA1FBB1F3A95D2F78095822388BB10926F
:1007B000A3003FCF1F920F920FB60F9211242F93D9
:1007C0003F934F935F936F937F938F939F93EF9399
:1007D000FF938091870089BD80918A0088BD209118
:1007E0008F00309190008091920090919300280F9B
:1007F000391F3093900020938F0080918800909152
:10080000890040919A0050919B00840F951F90930E
:1008100089008093880040918D0050918E006091F6
:10082000980070919900460F571F50938E00409387
:100830008D0040918B0050918C00609196007091DA
:100840009700460F571F50938C0040938B004091A8
:100850009C00442321F165E0969587956A95E1F720
:10086000809386008091840090918500209194006F
:1008700030919500820F931F9093850080938400A0
:10088000FF91EF919F918F917F916F915F914F9128
:100890003F912F910F900FBE0F901F901895609170
:1008A000A000892F9927FC01EC55FF4F808170E053
:1008B00090E06DD0FC01E20FF31F56E0F695E7954E
:1008C0005A95E1F7FF27EC55FF4F80818093870011
:1008D000D7CF48DDE3E9F2E084EA90E024E231E0BA
:1008E000DC0144914D9331962A173B07D1F72FEF46
:1008F00020932401E3E2F1E0A5E2B1E020812D9311
:1009000031978E179F07D1F78FB7F894C59A8FBF8D
:1009100080E007DE81E005DE87B5826087BD87EC79
:1009200090E00197F1F700C0000007B400FEFDCF92
:1009300087B5846087BD87B5806887BDF89483EAF2
:100940008ABD81E083BF10BE1FBC82E08CBD8FEFEB
:100950008EBD8DBD80E489BF84E880BF789402DDC0
:100960008091600097B1907F97B997B1892B87B933
:10097000369A87EC90E00197F1F700C00000809173
:10098000A4018C3010F4F8DCFACFF6DCFECF0024A2
:10099000552704C0080E591F880F991F009729F08A
:1009A00076956795B8F37105B9F7802D952F089561
:0409B000F894FFCFE9
:1009B4000102020203010204040304050201050604
:1009C40008030807080706081005020403000100CD
:0409D400020003001A
:00000001FF
