:1000000095C1AFC1AEC1BAC3ACC1ABC1AAC1A9C190
:10001000A0C2A7C1A6C1A5C1A4C1A3C1A2C1000419
:10002000FFF112FCFA0FF706F00300FF00FD1000CD
:10003000FCEE0DF9FB04030A020FF92107F612E5A5
:1000400002FD10FBE1FBEF08EAFAF8F509F701F70A
:10005000F6FD061B06FFF3E906F410051809080E65
:10006000F705EC0AE7FBF404F5EF08F70BEE17F7DA
:100070000E00090B0410EA0DF90CF604E6EE03F984
:100080000EEF03FF12FB0B0E0007F108F9FBFBFE5E
:10009000F9EEFDFC04FCFE0B0C040103F8F3FE0278
:1000A00007000B0601FDFF0901FFFAFFFD0BF4FE3F
:1000B000F6FC020404FD0CFA04E90408FC07FAFE4D
:1000C000FFFCF5F6F606FBFB03FF0309FF02000049
:1000D0000CFD04FDFEFA0C00020FFF06F706FCFF04
:1000E000FDF0FFFCFCFEF9F90804010802FB00F832
:1000F00001050600F501F40008FAFDFDF9FF03FB18
:1001000005FC0410F908040107FAF4F9070101FDE0
:1001100000010201F7FB07FDFAFDF904FE080700E4
:100120000B01FBFDF5F705FDFDFCFD05020AFAFDDF
:1001300008F9F8FE03FF05020103020801FDFEF9BC
:10014000FD01FDFF0201FAFC00FB010101010202B9
:10015000F90106FEFD0702FFF7FA03FE01FFFFF9B2
:100160000109FFFD0306FB04FDFF03F3FD0205FB90
:1001700002F80301FC02FA08F70105FBF9FF04FF8E
:10018000FD0400FDFFFF04FFFF03040101F9040665
:10019000FEFCFC0002FEFD03F902FEFFFE0200FB76
:1001A000FAF903FE05FA0402FE07FFFE0100FB0256
:1001B000FD03000204FB010203FD03FDFE03FCFF3F
:1001C000FE01FCFAFF04FDFDFEFB01FD06FE000240
:1001D0000100FE01F705FB0404FE06FF00FC04021B
:1001E000FFFF01FDFEFFF901FFFA01FDFD02FB0328
:1001F000FEFD03FFFE010100000002FE010500FEFE
:1002000003FE00FE00FFF900FFFFFB02000200FEFC
:1002100001FD00FEFCFF0301FFFDFEFFFF01FE01EB
:100220000302020000FE03FBFD02FFFDFD0501FFCE
:10023000FF000100FDFE0001FF0002FEFFFE03FDC6
:10024000FE01FEFFFF0301FEFEFFFFFF00FF0001B6
:1002500000000403FEFFFE000000FEFB00000001A2
:10026000FDFEFFFEFD00FEFE01FE000001FF00019D
:1002700002FEFF0000020101FF02FF00FF01FE007D
:10028000FFFD01FE00FEFF0000FFFF0000FFFF007A
:100290000000000000000001010102020304050546
:1002A0000607090A0B0C0E0F1112141517191B1D46
:1002B0001F212325282A2C2F313436393B3E414338
:1002C00046494C4F5255585A5D6164676A6D707368
:1002D00076797C808386898C8F9295989B9EA2A547
:1002E000A7AAADB0B3B6B9BCBEC1C4C6C9CBCED047
:1002F000D3D5D7DADCDEE0E2E4E6E8EAEBEDEEF0D7
:10030000F1F3F4F5F6F8F9FAFAFBFCFDFDFEFEFE5A
:10031000FFFFFF000000003800000000003700026F
:1003200002020202020102040810200011241FBE72
:10033000CFE5D2E0DEBFCDBF10E0A0E6B0E0E8E759
:10034000F9E002C005900D92A438B107D9F721E079
:10035000A4E8B0E001C01D92A33AB207E1F79DD234
:1003600009C34ECEEF92FF920F931F93CF93DF936B
:1003700080919C00813009F459C050F0823009F41A
:1003800092C0DF91CF911F910F91FF90EF90089550
:1003900000919100C0919F008091900090E0EE2428
:1003A000EA94F12CD0E09701281B390BC901BE015A
:1003B000D0D2492F90939100292F30E0A0918B004B
:1003C000B0918C0080918E0090E08E559F4FFC0183
:1003D000808190E0B901BDD2192F8B2F99278E55BE
:1003E0009F4FFC018081B7016C1B7D0B90E0B1D267
:1003F000910F90938A00041730F480E090E490937A
:100400008E0080938D00201B310937FF03C031958A
:1004100021953109243008F4B4CF80E0922F8A0F5F
:100420009B1F90938C0080938B00ABCF20918F000B
:1004300030919000369527953695279580919F00AD
:100440008456990B75E0880F991F7A95E1F7281764
:10045000390720F01092900010928F0020918F00A9
:1004600030919000F901F695E795F695E795E25EF3
:10047000FF4F64918091890090E08E559F4FFC0161
:10048000808170E090E065D290938700E0918600D3
:10049000F0E0232F3327EE55FF4FE20FF31F80814B
:1004A00080938A006ECF8091890090E020919F0018
:1004B0002817190648F42091900030E02E553F4F40
:1004C000F90120812093870020918E0030E02E5585
:1004D0003F4FF90140818E559F4FFC018081480FAD
:1004E0005527551F20918C0030E02E553F4FF901C4
:1004F0008081480F511D2091850030E02E553F4FDF
:10050000F9018081840F952F911D9595879595957B
:100510008795C6CF90E0FC01EB5DFC4F2491815E96
:100520009C4FFC018491882399F090E0880F991FDB
:10053000FC01E75EFC4FA591B491FC01ED5EFC4F20
:10054000859194918FB7F894EC91E22BEC938FBF47
:1005500008951F920F920FB60F9211242F933F937D
:100560004F935F936F937F938F939F93AF93BF93BB
:10057000EF93FF938091A2018F5F8093A2018091FE
:1005800061008111B2C08091600095B1E82FF0E068
:10059000E256FF4F90838230E1F1833009F450C07E
:1005A000811109C080919E00863978F1833A78F1F3
:1005B00082E080939C0080919D008F5F863008F0E0
:1005C00091C080939D00E0919D00F0E0E258FF4FC4
:1005D000808180936000806287B9369A8091610043
:1005E00091E0892780936100FF91EF91BF91AF91D6
:1005F0009F918F917F916F915F914F913F912F913B
:100600000F900FBE0F901F90189581E0D2CF80E021
:10061000D0CF8091A00090E0880F991F880F991F7C
:1006200020919C00213011F4885C9109880F991F5A
:10063000880F991F01969093930080939200BBCFEF
:100640002091A10030E0220F331F220F331F409171
:100650009C00220F331F220F331F413049F42F5AC1
:1006600034403695279530939B0020939A00A3CF72
:10067000C9010196423049F5E0919F00F0E045E064
:10068000F595E7954A95E1F790939B0080939A0042
:10069000EE59FF4F608170E001965BD19093990015
:1006A00080939800608570E0C901029752D19093C1
:1006B000970080939600608970E0C901089649D13F
:1006C000909395008093940076CF90939B008093B5
:1006D0009A0090939900809398009093970080934C
:1006E000960069CF10929D006ECF80919C00813062
:1006F00009F473CF8091600090E0FC01E256FF4F57
:100700002081283C90F427B386589F4FFC0130810C
:1007100081E090E0A0E0B0E004C0880F991FAA1F1C
:10072000BB1F3A95D2F7822B87BB27B3E0916000BD
:10073000F0E0E658FF4F308181E090E0A0E0B0E0CB
:10074000AC01BD0104C0440F551F661F771F3A95C9
:10075000D2F74095422347BB28B3E0916000F0E018
:10076000E658FF4F308104C0880F991FAA1FBB1F96
:100770003A95D2F78095822388BB2FCF1F920F9294
:100780000FB60F9211242F933F934F935F936F9364
:100790007F938F939F93EF93FF938091870089BD01
:1007A00080918A0088BD20918F00309190008091C7
:1007B000920090919300280F391F3093900020935E
:1007C0008F00809188009091890040919A0050910B
:1007D0009B00840F951F909389008093880040911F
:1007E0008D0050918E006091980070919900460F95
:1007F000571F50938E0040938D0040918B00509175
:100800008C006091960070919700460F571F50938F
:100810008C0040938B0040919C00411128C0892F8F
:100820009927FC01EE55FF4F808160919F0070E099
:1008300090E08FD0FC01E20FF31F56E0F695E795AC
:100840005A95E1F7FF27EE55FF4F8081809387008F
:10085000FF91EF919F918F917F916F915F914F9158
:100860003F912F910F900FBE0F901F90189525E08C
:10087000969587952A95E1F780938600809184006C
:10088000909185002091940030919500820F931FE4
:100890009093850080938400DBCF17B88FE886B9EA
:1008A000E3E9F2E082EA90E022E231E0DC01449107
:1008B0004D9331962A173B07D1F72FEF2093220152
:1008C000E1E2F1E0A3E2B1E020812D9331978E17B0
:1008D0009F07D1F78FB7F894C59A8FBF80E01ADED3
:1008E00081E018DE87B5826087BD87EC90E00197D4
:1008F000F1F700C0000007B400FEFDCF87B58460AB
:1009000087BD87B5806887BDF89483EA8ABD81E09A
:1009100083BF10BE1FBC82E08CBD8FEF8EBD8DBD2E
:1009200080E489BF84E880BF789417B88FE886B9DF
:1009300080E287B9369A87EC90E00197F1F700C022
:1009400000008091A2018C3010F40CDDFACF0ADD9A
:10095000FECF0024552704C0080E591F880F991F89
:10096000009729F076956795B8F37105B9F7802D52
:08097000952F0895F894FFCFC4
:100978000101020202030102040403040502010545
:100988000608030807080706081005020403000103
:040998000002000356
:00000001FF
